:107E0000112484B714BE982F9D7009F0D4D085E05A
:107E10008093810082E08093C00088E18093C1005C
:107E200086E08093C20088E08093C4008EE0AED0EC
:107E3000259A86E028E13EEF91E03093850020937B
:107E4000840096BBB09BFECF1D9AA8958150A9F7E0
:107E5000C0E0D0E093E0F92EEE24E39425E0D22EAA
:107E600031E1C32E87D0813481F484D0182F94D08F
:107E7000123829F482E077D080E175D0F3CF113841
:107E800011F486E0F8CF83E0F6CF823419F484E170
:107E90008BD0F2CF853411F485E0FACF853549F4E3
:107EA00069D0C82FD0E066D0D82BCC0FDD1F74D09E
:107EB000E3CF863521F484E077D080E0DCCF8436D0
:107EC00009F032C057D056D0B82E54D0A82E00E0BA
:107ED00011E050D0F80181938F01BE12FACF5CD02F
:107EE000F5E4AF1201C0FFCFFE01F7BEE89507B67B
:107EF00000FCFDCFFE01A0E0B1E08C9111962C9129
:107F0000119790E0922B0C01E7BEE8951124329670
:107F10001296BA12F2CFFE01D7BEE89507B600FC62
:107F2000FDCFC7BEE895A8CF843771F423D022D007
:107F3000B82E20D031D08E01F80185918F0113D059
:107F4000BA94B110F9CF98CF853739F425D08EE1A6
:107F50000AD085E908D08FE08ECF813509F0A7CF10
:107F600088E014D0A4CF9091C00095FFFCCF8093FF
:107F7000C60008958091C00087FFFCCF8091C000AB
:107F800084FD01C0A8958091C6000895E0E6F0E068
:107F900098E1908380830895EDDF803219F088E0C6
:107FA000F5DFFFCF84E1DFCFCF93C82FE3DFC150F0
:107FB000E9F7CF91F1CF282E80E0E8DFE0E0FF275E
:027FC000099422
:027FFE00020679
:0400000300007E007B
:00000001FF
