:103E0000112484B714BE982F9D7009F0D3D085E09B
:103E10008093810082E08093C00088E18093C1009C
:103E200086E08093C20080E18093C4008EE0ADD034
:103E3000259A86E020E33CEF91E0309385002093C3
:103E4000840096BBB09BFECF1D9AA8958150A9F720
:103E5000C0E0D0E093E0F92EEE24E39425E0D22EEA
:103E600031E1C32E86D0813481F483D0182F93D0D2
:103E7000123829F482E076D080E174D0F3CF113883
:103E800011F486E0F8CF83E0F6CF823419F484E1B0
:103E90008AD0F2CF853411F485E0FACF853549F424
:103EA00068D0C82FD0E065D0D82BCC0FDD1F73D0E1
:103EB000E3CF863521F484E076D080E0DCCF843611
:103EC00009F032C056D055D0B82E53D0A82E00E0FD
:103ED00011E04FD0F80181938F01BE12FACF5BD071
:103EE000F5E4AF1201C0FFCFFE01F7BEE89507B6BB
:103EF00000FCFDCFFE01A0E0B1E08C9111962C9169
:103F0000119790E0922B0C01E7BEE89511243296B0
:103F10001296BA12F2CFFE01D7BEE89507B600FCA2
:103F2000FDCFC7BEE895A8CF843771F422D021D049
:103F3000B82E1FD030D08E01F80185918F0112D09C
:103F4000BA94B110F9CF98CF853731F424D08EE1EF
:103F500009D084E907D095CF813509F0A8CF88E052
:103F600014D0A5CF9091C00095FFFCCF8093C600E0
:103F700008958091C00087FFFCCF8091C00084FD30
:103F800001C0A8958091C6000895E0E6F0E098E1B0
:103F9000908380830895EDDF803219F088E0F5DFAB
:103FA000FFCF84E1DFCFCF93C82FE3DFC150E9F724
:103FB000CF91F1CF282E80E0E8DFE0E0FF270994E1
:023FFE000206B9
:0400000300003E00BB
:00000001FF
