:101D0000112484B714BE81FF23D185E08EBD88E104
:101D100081BD8EE081BDD49AD29A86E023EC3FEF5C
:101D200091E03DBD2CBD9BB9589BFECFCC9AA895A8
:101D30008150B9F7C0E0D0E068E1F62E78E0E72EF8
:101D4000E3E0DE2ECC24C394F5E0BF2EAFE7AA2E4D
:101D5000BEEC9B2ED5D0813481F4D2D0182FE3D0A5
:101D6000123819F484E0BDD0B9C0113819F484E0F8
:101D7000B8D0B4C083E0B5D0B1C0823419F484E1E6
:101D8000DCD0ACC0853419F485E0D7D0A7C0853548
:101D900049F4B6D0C82FD0E0B3D0D82BCC0FDD1F7C
:101DA000C2D09CC0863529F484E0C7D080E099D0A9
:101DB00095C0843609F053C0A3D0A2D0882EA0D0FD
:101DC00000E011E09DD0F80181938F018E12FACFCF
:101DD000FE01D7BEE895A7D007B600FCFDCF20973F
:101DE00021F58091010190E0982F88272091000132
:101DF000AC01422B9A01309385012093840180919C
:101E0000090190E0982F882740910801842B909336
:101E10008701809386012450310920930801309373
:101E20000901A092000190920101FE01A0E0B1E041
:101E30008C9111962C91119790E0922B0C01C7BEBA
:101E4000E895112432961296A03451E0B50781F737
:101E5000FE01B7BEE89507B600FCFDCF3FC0843752
:101E600061F54ED04DD0882E4BD05DD0782C8E01B0
:101E70000115110519F48091840114C00130110578
:101E800019F4809185010EC00830110519F4809174
:101E9000860108C00930110519F48091870102C03C
:101EA000F80184910F5F1F4F1CD07A947110E0CF1E
:101EB00021968A94C80DD11D11C0853741F433D0C5
:101EC0008EE10FD083E90DD08CE00BD007C08135B7
:101ED00021F4F1BCE1BC27D001C025D080E101D0C4
:101EE00039CF2AE030E08095089410F4DA9802C0E7
:101EF000DA9A000014D013D086952A95B1F7089588
:101F000029E030E0CB99FECF0AD009D008D08894E0
:101F1000CB9908942A9511F08795F7CF08959EE004
:101F20009A95F1F70895ECDF803229F088E181BDC0
:101F300088E081BDFFCF84E1D4CFCF93C82FE0DF0D
:101F4000C150E9F7CF91EFCF98E191BD81BD0895E0
:0C1F500088E181BD11BCE4E0FF2709948A
:021EFE000404DA
:0400000300001D00DC
:00000001FF
