:103E0000112484B714BE982F9D7009F0D8D085E096
:103E10008093810082E08093C00088E18093C1009C
:103E200086E08093C20089E18093C4008EE0B2D026
:103E3000259A86E028E13EEF91E0309385002093BB
:103E4000840096BBB09BFECF1D9AA8958150A9F720
:103E5000D0E0C0E093E0F92EEE24E39425E0D22EEA
:103E600031E1C32E8BD0813459F488D0182F98D0EB
:103E700082E01238F1F083E01138D9F486E019C0FD
:103E8000823419F484E194D015C0853411F485E0AE
:103E9000FACF853549F472D0C82FD0E06FD0D82B37
:103EA000CC0FDD1F7DD006C0863539F484E080D08C
:103EB00080E05DD080E15BD0D5CF843609F039C099
:103EC0005DD05CD0982E5AD0882E00E011E05801C9
:103ED0008FEFA81AB80A52D0F801808385019A1092
:103EE000F6CF5ED0F5E48F1201C0FFCFFE01F7BE22
:103EF000E89507B600FCFDCFFE01A0E0B1E09C9183
:103F00009D012E5F3F4F11968C9189279827892715
:103F10000C01E7BEE89511243296D9019212EFCF39
:103F2000FE01D7BEE89507B600FCFDCFC7BEE895F9
:103F3000C1CF843771F422D021D0B82E1FD030D019
:103F40008E01F80185918F0112D0BA94B110F9CF8A
:103F5000B1CF853731F424D08EE109D084E907D080
:103F60008DCF813509F09ECF88E014D09BCF909102
:103F7000C00095FFFCCF8093C60008958091C000DB
:103F800087FFFCCF8091C00084FD01C0A89580917F
:103F9000C6000895E0E6F0E098E1908380830895FC
:103FA000EDDF803219F088E0F5DFFFCF84E1DFCF6D
:103FB000CF93C82FE3DFC150E9F7CF91F1CF282E7F
:0A3FC00080E0E8DFE0E0FF2709944D
:023FFE000206B9
:0400000300003E00BB
:00000001FF
